{
  "contractName": "MarketTradingAccessControls",
  "abi": [
    {
      "inputs": [],
      "stateMutability": "nonpayable",
      "type": "constructor"
    },
    {
      "anonymous": false,
      "inputs": [
        {
          "indexed": true,
          "internalType": "address",
          "name": "beneficiary",
          "type": "address"
        },
        {
          "indexed": true,
          "internalType": "address",
          "name": "caller",
          "type": "address"
        }
      ],
      "name": "AdminRoleGranted",
      "type": "event"
    },
    {
      "anonymous": false,
      "inputs": [
        {
          "indexed": true,
          "internalType": "address",
          "name": "beneficiary",
          "type": "address"
        },
        {
          "indexed": true,
          "internalType": "address",
          "name": "caller",
          "type": "address"
        }
      ],
      "name": "AdminRoleRemoved",
      "type": "event"
    },
    {
      "anonymous": false,
      "inputs": [
        {
          "indexed": true,
          "internalType": "address",
          "name": "beneficiary",
          "type": "address"
        },
        {
          "indexed": true,
          "internalType": "address",
          "name": "caller",
          "type": "address"
        }
      ],
      "name": "MinterRoleGranted",
      "type": "event"
    },
    {
      "anonymous": false,
      "inputs": [
        {
          "indexed": true,
          "internalType": "address",
          "name": "beneficiary",
          "type": "address"
        },
        {
          "indexed": true,
          "internalType": "address",
          "name": "caller",
          "type": "address"
        }
      ],
      "name": "MinterRoleRemoved",
      "type": "event"
    },
    {
      "anonymous": false,
      "inputs": [
        {
          "indexed": true,
          "internalType": "bytes32",
          "name": "role",
          "type": "bytes32"
        },
        {
          "indexed": true,
          "internalType": "bytes32",
          "name": "previousAdminRole",
          "type": "bytes32"
        },
        {
          "indexed": true,
          "internalType": "bytes32",
          "name": "newAdminRole",
          "type": "bytes32"
        }
      ],
      "name": "RoleAdminChanged",
      "type": "event"
    },
    {
      "anonymous": false,
      "inputs": [
        {
          "indexed": true,
          "internalType": "bytes32",
          "name": "role",
          "type": "bytes32"
        },
        {
          "indexed": true,
          "internalType": "address",
          "name": "account",
          "type": "address"
        },
        {
          "indexed": true,
          "internalType": "address",
          "name": "sender",
          "type": "address"
        }
      ],
      "name": "RoleGranted",
      "type": "event"
    },
    {
      "anonymous": false,
      "inputs": [
        {
          "indexed": true,
          "internalType": "bytes32",
          "name": "role",
          "type": "bytes32"
        },
        {
          "indexed": true,
          "internalType": "address",
          "name": "account",
          "type": "address"
        },
        {
          "indexed": true,
          "internalType": "address",
          "name": "sender",
          "type": "address"
        }
      ],
      "name": "RoleRevoked",
      "type": "event"
    },
    {
      "anonymous": false,
      "inputs": [
        {
          "indexed": true,
          "internalType": "address",
          "name": "beneficiary",
          "type": "address"
        },
        {
          "indexed": true,
          "internalType": "address",
          "name": "caller",
          "type": "address"
        }
      ],
      "name": "SmartContractRoleGranted",
      "type": "event"
    },
    {
      "anonymous": false,
      "inputs": [
        {
          "indexed": true,
          "internalType": "address",
          "name": "beneficiary",
          "type": "address"
        },
        {
          "indexed": true,
          "internalType": "address",
          "name": "caller",
          "type": "address"
        }
      ],
      "name": "SmartContractRoleRemoved",
      "type": "event"
    },
    {
      "inputs": [],
      "name": "DEFAULT_ADMIN_ROLE",
      "outputs": [
        {
          "internalType": "bytes32",
          "name": "",
          "type": "bytes32"
        }
      ],
      "stateMutability": "view",
      "type": "function",
      "constant": true
    },
    {
      "inputs": [],
      "name": "MINTER_ROLE",
      "outputs": [
        {
          "internalType": "bytes32",
          "name": "",
          "type": "bytes32"
        }
      ],
      "stateMutability": "view",
      "type": "function",
      "constant": true
    },
    {
      "inputs": [],
      "name": "SMART_CONTRACT_ROLE",
      "outputs": [
        {
          "internalType": "bytes32",
          "name": "",
          "type": "bytes32"
        }
      ],
      "stateMutability": "view",
      "type": "function",
      "constant": true
    },
    {
      "inputs": [
        {
          "internalType": "bytes32",
          "name": "role",
          "type": "bytes32"
        }
      ],
      "name": "getRoleAdmin",
      "outputs": [
        {
          "internalType": "bytes32",
          "name": "",
          "type": "bytes32"
        }
      ],
      "stateMutability": "view",
      "type": "function",
      "constant": true
    },
    {
      "inputs": [
        {
          "internalType": "bytes32",
          "name": "role",
          "type": "bytes32"
        },
        {
          "internalType": "uint256",
          "name": "index",
          "type": "uint256"
        }
      ],
      "name": "getRoleMember",
      "outputs": [
        {
          "internalType": "address",
          "name": "",
          "type": "address"
        }
      ],
      "stateMutability": "view",
      "type": "function",
      "constant": true
    },
    {
      "inputs": [
        {
          "internalType": "bytes32",
          "name": "role",
          "type": "bytes32"
        }
      ],
      "name": "getRoleMemberCount",
      "outputs": [
        {
          "internalType": "uint256",
          "name": "",
          "type": "uint256"
        }
      ],
      "stateMutability": "view",
      "type": "function",
      "constant": true
    },
    {
      "inputs": [
        {
          "internalType": "bytes32",
          "name": "role",
          "type": "bytes32"
        },
        {
          "internalType": "address",
          "name": "account",
          "type": "address"
        }
      ],
      "name": "grantRole",
      "outputs": [],
      "stateMutability": "nonpayable",
      "type": "function"
    },
    {
      "inputs": [
        {
          "internalType": "bytes32",
          "name": "role",
          "type": "bytes32"
        },
        {
          "internalType": "address",
          "name": "account",
          "type": "address"
        }
      ],
      "name": "hasRole",
      "outputs": [
        {
          "internalType": "bool",
          "name": "",
          "type": "bool"
        }
      ],
      "stateMutability": "view",
      "type": "function",
      "constant": true
    },
    {
      "inputs": [
        {
          "internalType": "bytes32",
          "name": "role",
          "type": "bytes32"
        },
        {
          "internalType": "address",
          "name": "account",
          "type": "address"
        }
      ],
      "name": "renounceRole",
      "outputs": [],
      "stateMutability": "nonpayable",
      "type": "function"
    },
    {
      "inputs": [
        {
          "internalType": "bytes32",
          "name": "role",
          "type": "bytes32"
        },
        {
          "internalType": "address",
          "name": "account",
          "type": "address"
        }
      ],
      "name": "revokeRole",
      "outputs": [],
      "stateMutability": "nonpayable",
      "type": "function"
    },
    {
      "inputs": [
        {
          "internalType": "address",
          "name": "_address",
          "type": "address"
        }
      ],
      "name": "hasAdminRole",
      "outputs": [
        {
          "internalType": "bool",
          "name": "",
          "type": "bool"
        }
      ],
      "stateMutability": "view",
      "type": "function",
      "constant": true
    },
    {
      "inputs": [
        {
          "internalType": "address",
          "name": "_address",
          "type": "address"
        }
      ],
      "name": "hasMinterRole",
      "outputs": [
        {
          "internalType": "bool",
          "name": "",
          "type": "bool"
        }
      ],
      "stateMutability": "view",
      "type": "function",
      "constant": true
    },
    {
      "inputs": [
        {
          "internalType": "address",
          "name": "_address",
          "type": "address"
        }
      ],
      "name": "hasSmartContractRole",
      "outputs": [
        {
          "internalType": "bool",
          "name": "",
          "type": "bool"
        }
      ],
      "stateMutability": "view",
      "type": "function",
      "constant": true
    },
    {
      "inputs": [
        {
          "internalType": "address",
          "name": "_address",
          "type": "address"
        }
      ],
      "name": "addAdminRole",
      "outputs": [],
      "stateMutability": "nonpayable",
      "type": "function"
    },
    {
      "inputs": [
        {
          "internalType": "address",
          "name": "_address",
          "type": "address"
        }
      ],
      "name": "removeAdminRole",
      "outputs": [],
      "stateMutability": "nonpayable",
      "type": "function"
    },
    {
      "inputs": [
        {
          "internalType": "address",
          "name": "_address",
          "type": "address"
        }
      ],
      "name": "addMinterRole",
      "outputs": [],
      "stateMutability": "nonpayable",
      "type": "function"
    },
    {
      "inputs": [
        {
          "internalType": "address",
          "name": "_address",
          "type": "address"
        }
      ],
      "name": "removeMinterRole",
      "outputs": [],
      "stateMutability": "nonpayable",
      "type": "function"
    },
    {
      "inputs": [
        {
          "internalType": "address",
          "name": "_address",
          "type": "address"
        }
      ],
      "name": "addSmartContractRole",
      "outputs": [],
      "stateMutability": "nonpayable",
      "type": "function"
    },
    {
      "inputs": [
        {
          "internalType": "address",
          "name": "_address",
          "type": "address"
        }
      ],
      "name": "removeSmartContractRole",
      "outputs": [],
      "stateMutability": "nonpayable",
      "type": "function"
    }
  ],
  "bytecode": "0x608060405234801561001057600080fd5b50610023600061001e610028565b61002c565b61012d565b3390565b610036828261003a565b5050565b60008281526020818152604090912061005c91839061080f6100ad821b17901c565b1561003657610069610028565b6001600160a01b0316816001600160a01b0316837f2f8788117e7eff1d82e926ec794901d17c78024a50270940304540a733656f0d60405160405180910390a45050565b60006100c2836001600160a01b0384166100cb565b90505b92915050565b60006100d78383610115565b61010d575081546001818101845560008481526020808220909301849055845484825282860190935260409020919091556100c5565b5060006100c5565b60009081526001919091016020526040902054151590565b610bf18061013c6000396000f3fe608060405234801561001057600080fd5b50600436106101215760003560e01c80638a845fc0116100ad578063c395fcb311610071578063c395fcb314610348578063ca15c8731461036e578063d53913931461038b578063d547741f14610393578063dccfe310146103bf57610121565b80638a845fc0146102895780639010d07c146102af57806391d14854146102ee578063a217fddf1461031a578063adbf37761461032257610121565b806336568abe116100f457806336568abe146101e35780633f16431a1461020f57806354f1e126146102355780636595171c1461025b578063857d26081461028157610121565b8063099db01714610126578063113b0ab214610160578063248a9ca3146101865780632f2ff15d146101b5575b600080fd5b61014c6004803603602081101561013c57600080fd5b50356001600160a01b03166103e5565b604080519115158252519081900360200190f35b61014c6004803603602081101561017657600080fd5b50356001600160a01b0316610405565b6101a36004803603602081101561019c57600080fd5b503561041f565b60408051918252519081900360200190f35b6101e1600480360360408110156101cb57600080fd5b50803590602001356001600160a01b0316610434565b005b6101e1600480360360408110156101f957600080fd5b50803590602001356001600160a01b03166104a0565b6101e16004803603602081101561022557600080fd5b50356001600160a01b0316610501565b6101e16004803603602081101561024b57600080fd5b50356001600160a01b0316610563565b6101e16004803603602081101561027157600080fd5b50356001600160a01b03166105c5565b6101a361061a565b6101e16004803603602081101561029f57600080fd5b50356001600160a01b031661062c565b6102d2600480360360408110156102c557600080fd5b508035906020013561068e565b604080516001600160a01b039092168252519081900360200190f35b61014c6004803603604081101561030457600080fd5b50803590602001356001600160a01b03166106ad565b6101a36106c5565b6101e16004803603602081101561033857600080fd5b50356001600160a01b03166106ca565b61014c6004803603602081101561035e57600080fd5b50356001600160a01b031661072c565b6101a36004803603602081101561038457600080fd5b5035610738565b6101a361074f565b6101e1600480360360408110156103a957600080fd5b50803590602001356001600160a01b0316610761565b6101e1600480360360208110156103d557600080fd5b50356001600160a01b03166107ba565b60006103ff600080516020610b6d833981519152836106ad565b92915050565b60006103ff600080516020610b1d833981519152836106ad565b60009081526020819052604090206002015490565b60008281526020819052604090206002015461045790610452610824565b6106ad565b6104925760405162461bcd60e51b815260040180806020018281038252602f815260200180610aee602f913960400191505060405180910390fd5b61049c8282610828565b5050565b6104a8610824565b6001600160a01b0316816001600160a01b0316146104f75760405162461bcd60e51b815260040180806020018281038252602f815260200180610b8d602f913960400191505060405180910390fd5b61049c8282610891565b610519600080516020610b1d83398151915282610434565b610521610824565b6001600160a01b0316816001600160a01b03167f1d5f9ec24c6f91be922ea13ceaad919ad6554a41b5c26087f96289a9baf98ad260405160405180910390a350565b61057b600080516020610b6d83398151915282610761565b610583610824565b6001600160a01b0316816001600160a01b03167f56692a161ffec953ddf9def93b958ea8d1ec95e21b80870c66be91a4374dc4e360405160405180910390a350565b6105d0600082610434565b6105d8610824565b6001600160a01b0316816001600160a01b03167f2570ac42fd8b322dc453ada624dc2ed0e9bdd67f16f201a25bbd30468f2aa18760405160405180910390a350565b600080516020610b1d83398151915281565b610644600080516020610b1d83398151915282610761565b61064c610824565b6001600160a01b0316816001600160a01b03167fe5f1aa9e528307345194b88b24a32401c13926e0823060f1049d9b26c0bb62b260405160405180910390a350565b60008281526020819052604081206106a690836108fa565b9392505050565b60008281526020819052604081206106a69083610906565b600081565b6106e2600080516020610b6d83398151915282610434565b6106ea610824565b6001600160a01b0316816001600160a01b03167f0be6ab9784c7401fafb73f7bc47bc67cc4ef8c47a60ad3cb66d1de0353a0784c60405160405180910390a350565b60006103ff81836106ad565b60008181526020819052604081206103ff9061091b565b600080516020610b6d83398151915281565b60008281526020819052604090206002015461077f90610452610824565b6104f75760405162461bcd60e51b8152600401808060200182810382526030815260200180610b3d6030913960400191505060405180910390fd5b6107c5600082610761565b6107cd610824565b6001600160a01b0316816001600160a01b03167f21ba1239795d4e22874e3dc55f0a9d7b65bfb23069d32965d7c23be9524ccf9560405160405180910390a350565b60006106a6836001600160a01b038416610926565b3390565b6000828152602081905260409020610840908261080f565b1561049c5761084d610824565b6001600160a01b0316816001600160a01b0316837f2f8788117e7eff1d82e926ec794901d17c78024a50270940304540a733656f0d60405160405180910390a45050565b60008281526020819052604090206108a99082610970565b1561049c576108b6610824565b6001600160a01b0316816001600160a01b0316837ff6391f5c32d9c69d2a47ea670b442974b53935d1edc7fd64eb21e047a839171b60405160405180910390a45050565b60006106a68383610985565b60006106a6836001600160a01b0384166109e9565b60006103ff82610a01565b600061093283836109e9565b610968575081546001818101845560008481526020808220909301849055845484825282860190935260409020919091556103ff565b5060006103ff565b60006106a6836001600160a01b038416610a05565b815460009082106109c75760405162461bcd60e51b8152600401808060200182810382526022815260200180610acc6022913960400191505060405180910390fd5b8260000182815481106109d657fe5b9060005260206000200154905092915050565b60009081526001919091016020526040902054151590565b5490565b60008181526001830160205260408120548015610ac15783546000198083019190810190600090879083908110610a3857fe5b9060005260206000200154905080876000018481548110610a5557fe5b600091825260208083209091019290925582815260018981019092526040902090840190558654879080610a8557fe5b600190038181906000526020600020016000905590558660010160008781526020019081526020016000206000905560019450505050506103ff565b60009150506103ff56fe456e756d657261626c655365743a20696e646578206f7574206f6620626f756e6473416363657373436f6e74726f6c3a2073656e646572206d75737420626520616e2061646d696e20746f206772616e749d49f397ae9ef1a834b569acb967799a367061e305932181a44f5773da873bfd416363657373436f6e74726f6c3a2073656e646572206d75737420626520616e2061646d696e20746f207265766f6b659f2df0fed2c77648de5860a4cc508cd0818c85b8b8a1ab4ceeef8d981c8956a6416363657373436f6e74726f6c3a2063616e206f6e6c792072656e6f756e636520726f6c657320666f722073656c66a2646970667358221220a85941e7c69b87e9c21ab36d649af861951f4656507f739160d5025215ba01bc64736f6c634300060c0033",
  "immutableReferences": {},
  "source": "// SPDX-License-Identifier: MIT\r\n\r\npragma solidity ^0.6.0;\r\n\r\nimport \"@openzeppelin/contracts/access/AccessControl.sol\";\r\n\r\n/**\r\n * @notice Access Controls contract for the Market Trading Platform\r\n */\r\ncontract MarketTradingAccessControls is AccessControl {\r\n    /// @notice Role definitions\r\n    bytes32 public constant MINTER_ROLE = \r\n    0x9f2df0fed2c77648de5860a4cc508cd0818c85b8b8a1ab4ceeef8d981c8956a6; // keccak256(\"MINTER_ROLE\")\r\n\r\n    bytes32 public constant SMART_CONTRACT_ROLE = \r\n    0x9d49f397ae9ef1a834b569acb967799a367061e305932181a44f5773da873bfd; //keccak256(\"SMART_CONTRACT_ROLE\");\r\n\r\n    /// @notice Events for adding and removing various roles\r\n    event AdminRoleGranted(\r\n        address indexed beneficiary,\r\n        address indexed caller\r\n    );\r\n\r\n    event AdminRoleRemoved(\r\n        address indexed beneficiary,\r\n        address indexed caller\r\n    );\r\n\r\n    event MinterRoleGranted(\r\n        address indexed beneficiary,\r\n        address indexed caller\r\n    );\r\n\r\n    event MinterRoleRemoved(\r\n        address indexed beneficiary,\r\n        address indexed caller\r\n    );\r\n\r\n    event SmartContractRoleGranted(\r\n        address indexed beneficiary,\r\n        address indexed caller\r\n    );\r\n\r\n    event SmartContractRoleRemoved(\r\n        address indexed beneficiary,\r\n        address indexed caller\r\n    );\r\n\r\n    /**\r\n     * @notice The deployer is automatically given the admin role which will allow them to then grant roles to other addresses\r\n     */\r\n    constructor() public {\r\n        _setupRole(DEFAULT_ADMIN_ROLE, _msgSender());\r\n    }\r\n    /////////////\r\n    // Lookups //\r\n    /////////////\r\n\r\n    /**\r\n     * @notice Used to check whether an address has the admin role\r\n     * @param _address EOA or contract being checked\r\n     * @return bool True if the account has the role or false if it does not\r\n     */\r\n    function hasAdminRole(address _address) external view returns (bool) {\r\n        return hasRole(DEFAULT_ADMIN_ROLE, _address);\r\n    }\r\n\r\n    /**\r\n     * @notice Used to check whether an address has the minter role\r\n     * @param _address EOA or contract being checked\r\n     * @return bool True if the account has the role or false if it does not\r\n     */\r\n    function hasMinterRole(address _address) external view returns (bool) {\r\n        return hasRole(MINTER_ROLE, _address);\r\n    }\r\n\r\n    /**\r\n     * @notice Used to check whether an address has the smart contract role\r\n     * @param _address EOA or contract being checked\r\n     * @return bool True if the account has the role or false if it does not\r\n     */\r\n    function hasSmartContractRole(address _address) external view returns (bool) {\r\n        return hasRole(SMART_CONTRACT_ROLE, _address);\r\n    }\r\n\r\n    ///////////////\r\n    // Modifiers //\r\n    ///////////////\r\n\r\n    /**\r\n     * @notice Grants the admin role to an address\r\n     * @dev The sender must have the admin role\r\n     * @param _address EOA or contract receiving the new role\r\n     */\r\n    function addAdminRole(address _address) external {\r\n        grantRole(DEFAULT_ADMIN_ROLE, _address);\r\n        emit AdminRoleGranted(_address, _msgSender());\r\n    }\r\n\r\n    /**\r\n     * @notice Removes the admin role from an address\r\n     * @dev The sender must have the admin role\r\n     * @param _address EOA or contract affected\r\n     */\r\n    function removeAdminRole(address _address) external {\r\n        revokeRole(DEFAULT_ADMIN_ROLE, _address);\r\n        emit AdminRoleRemoved(_address, _msgSender());\r\n    }\r\n\r\n    /**\r\n     * @notice Grants the minter role to an address\r\n     * @dev The sender must have the admin role\r\n     * @param _address EOA or contract receiving the new role\r\n     */\r\n    function addMinterRole(address _address) external {\r\n        grantRole(MINTER_ROLE, _address);\r\n        emit MinterRoleGranted(_address, _msgSender());\r\n    }\r\n\r\n    /**\r\n     * @notice Removes the minter role from an address\r\n     * @dev The sender must have the admin role\r\n     * @param _address EOA or contract affected\r\n     */\r\n    function removeMinterRole(address _address) external {\r\n        revokeRole(MINTER_ROLE, _address);\r\n        emit MinterRoleRemoved(_address, _msgSender());\r\n    }\r\n\r\n    /**\r\n     * @notice Grants the smart contract role to an address\r\n     * @dev The sender must have the admin role\r\n     * @param _address EOA or contract receiving the new role\r\n     */\r\n    function addSmartContractRole(address _address) external {\r\n        grantRole(SMART_CONTRACT_ROLE, _address);\r\n        emit SmartContractRoleGranted(_address, _msgSender());\r\n    }\r\n\r\n    /**\r\n     * @notice Removes the smart contract role from an address\r\n     * @dev The sender must have the admin role\r\n     * @param _address EOA or contract affected\r\n     */\r\n    function removeSmartContractRole(address _address) external {\r\n        revokeRole(SMART_CONTRACT_ROLE, _address);\r\n        emit SmartContractRoleRemoved(_address, _msgSender());\r\n    }\r\n}\r\n",
  "sourcePath": "C:/Users/glory/works/nick/blockchain/insta-nft/instagram-offer-nft/contracts/AccessControl/MarketTradingAccessControls.sol",
  "compiler": {
    "name": "solc",
    "version": "0.6.12+commit.27d51765.Emscripten.clang"
  },
  "schemaVersion": "3.3.4",
  "updatedAt": "2021-05-05T04:12:27.030Z",
  "networkType": "ethereum",
  "devdoc": {
    "kind": "dev",
    "methods": {
      "addAdminRole(address)": {
        "details": "The sender must have the admin role",
        "params": {
          "_address": "EOA or contract receiving the new role"
        }
      },
      "addMinterRole(address)": {
        "details": "The sender must have the admin role",
        "params": {
          "_address": "EOA or contract receiving the new role"
        }
      },
      "addSmartContractRole(address)": {
        "details": "The sender must have the admin role",
        "params": {
          "_address": "EOA or contract receiving the new role"
        }
      },
      "getRoleAdmin(bytes32)": {
        "details": "Returns the admin role that controls `role`. See {grantRole} and {revokeRole}. To change a role's admin, use {_setRoleAdmin}."
      },
      "getRoleMember(bytes32,uint256)": {
        "details": "Returns one of the accounts that have `role`. `index` must be a value between 0 and {getRoleMemberCount}, non-inclusive. Role bearers are not sorted in any particular way, and their ordering may change at any point. WARNING: When using {getRoleMember} and {getRoleMemberCount}, make sure you perform all queries on the same block. See the following https://forum.openzeppelin.com/t/iterating-over-elements-on-enumerableset-in-openzeppelin-contracts/2296[forum post] for more information."
      },
      "getRoleMemberCount(bytes32)": {
        "details": "Returns the number of accounts that have `role`. Can be used together with {getRoleMember} to enumerate all bearers of a role."
      },
      "grantRole(bytes32,address)": {
        "details": "Grants `role` to `account`. If `account` had not been already granted `role`, emits a {RoleGranted} event. Requirements: - the caller must have ``role``'s admin role."
      },
      "hasAdminRole(address)": {
        "params": {
          "_address": "EOA or contract being checked"
        },
        "returns": {
          "_0": "bool True if the account has the role or false if it does not"
        }
      },
      "hasMinterRole(address)": {
        "params": {
          "_address": "EOA or contract being checked"
        },
        "returns": {
          "_0": "bool True if the account has the role or false if it does not"
        }
      },
      "hasRole(bytes32,address)": {
        "details": "Returns `true` if `account` has been granted `role`."
      },
      "hasSmartContractRole(address)": {
        "params": {
          "_address": "EOA or contract being checked"
        },
        "returns": {
          "_0": "bool True if the account has the role or false if it does not"
        }
      },
      "removeAdminRole(address)": {
        "details": "The sender must have the admin role",
        "params": {
          "_address": "EOA or contract affected"
        }
      },
      "removeMinterRole(address)": {
        "details": "The sender must have the admin role",
        "params": {
          "_address": "EOA or contract affected"
        }
      },
      "removeSmartContractRole(address)": {
        "details": "The sender must have the admin role",
        "params": {
          "_address": "EOA or contract affected"
        }
      },
      "renounceRole(bytes32,address)": {
        "details": "Revokes `role` from the calling account. Roles are often managed via {grantRole} and {revokeRole}: this function's purpose is to provide a mechanism for accounts to lose their privileges if they are compromised (such as when a trusted device is misplaced). If the calling account had been granted `role`, emits a {RoleRevoked} event. Requirements: - the caller must be `account`."
      },
      "revokeRole(bytes32,address)": {
        "details": "Revokes `role` from `account`. If `account` had been granted `role`, emits a {RoleRevoked} event. Requirements: - the caller must have ``role``'s admin role."
      }
    },
    "version": 1
  },
  "userdoc": {
    "events": {
      "AdminRoleGranted(address,address)": {
        "notice": "Events for adding and removing various roles"
      }
    },
    "kind": "user",
    "methods": {
      "MINTER_ROLE()": {
        "notice": "Role definitions"
      },
      "addAdminRole(address)": {
        "notice": "Grants the admin role to an address"
      },
      "addMinterRole(address)": {
        "notice": "Grants the minter role to an address"
      },
      "addSmartContractRole(address)": {
        "notice": "Grants the smart contract role to an address"
      },
      "constructor": "The deployer is automatically given the admin role which will allow them to then grant roles to other addresses",
      "hasAdminRole(address)": {
        "notice": "Used to check whether an address has the admin role"
      },
      "hasMinterRole(address)": {
        "notice": "Used to check whether an address has the minter role"
      },
      "hasSmartContractRole(address)": {
        "notice": "Used to check whether an address has the smart contract role"
      },
      "removeAdminRole(address)": {
        "notice": "Removes the admin role from an address"
      },
      "removeMinterRole(address)": {
        "notice": "Removes the minter role from an address"
      },
      "removeSmartContractRole(address)": {
        "notice": "Removes the smart contract role from an address"
      }
    },
    "notice": "Access Controls contract for the Market Trading Platform",
    "version": 1
  }
}