{
  "contractName": "NFTAuction",
  "abi": [
    {
      "inputs": [
        {
          "internalType": "contract MarketTradingAccessControls",
          "name": "_accessControls",
          "type": "address"
        },
        {
          "internalType": "contract IMarketTradingNFT",
          "name": "_marketTradingNft",
          "type": "address"
        },
        {
          "internalType": "address payable",
          "name": "_platformFeeRecipient",
          "type": "address"
        }
      ],
      "stateMutability": "nonpayable",
      "type": "constructor"
    },
    {
      "anonymous": false,
      "inputs": [
        {
          "indexed": true,
          "internalType": "uint256",
          "name": "tokenId",
          "type": "uint256"
        },
        {
          "indexed": false,
          "internalType": "address",
          "name": "seller",
          "type": "address"
        },
        {
          "indexed": false,
          "internalType": "string",
          "name": "tokenUri",
          "type": "string"
        },
        {
          "indexed": false,
          "internalType": "string",
          "name": "edition",
          "type": "string"
        },
        {
          "indexed": true,
          "internalType": "address",
          "name": "winner",
          "type": "address"
        },
        {
          "indexed": false,
          "internalType": "uint256",
          "name": "winningBid",
          "type": "uint256"
        }
      ],
      "name": "AuctionResulted",
      "type": "event"
    },
    {
      "anonymous": false,
      "inputs": [
        {
          "indexed": false,
          "internalType": "string",
          "name": "igUrl",
          "type": "string"
        },
        {
          "indexed": false,
          "internalType": "string",
          "name": "edition",
          "type": "string"
        },
        {
          "indexed": true,
          "internalType": "address",
          "name": "bidder",
          "type": "address"
        },
        {
          "indexed": false,
          "internalType": "uint256",
          "name": "bid",
          "type": "uint256"
        }
      ],
      "name": "BidPlaced",
      "type": "event"
    },
    {
      "anonymous": false,
      "inputs": [
        {
          "indexed": true,
          "internalType": "address",
          "name": "bidder",
          "type": "address"
        },
        {
          "indexed": false,
          "internalType": "uint256",
          "name": "bid",
          "type": "uint256"
        }
      ],
      "name": "BidRefunded",
      "type": "event"
    },
    {
      "anonymous": false,
      "inputs": [
        {
          "indexed": true,
          "internalType": "string",
          "name": "igUrl",
          "type": "string"
        },
        {
          "indexed": true,
          "internalType": "address",
          "name": "bidder",
          "type": "address"
        },
        {
          "indexed": false,
          "internalType": "uint256",
          "name": "bid",
          "type": "uint256"
        }
      ],
      "name": "BidWithdrawn",
      "type": "event"
    },
    {
      "anonymous": false,
      "inputs": [],
      "name": "NFTAuctionContractDeployed",
      "type": "event"
    },
    {
      "anonymous": false,
      "inputs": [
        {
          "indexed": false,
          "internalType": "bool",
          "name": "isPaused",
          "type": "bool"
        }
      ],
      "name": "PauseToggled",
      "type": "event"
    },
    {
      "anonymous": false,
      "inputs": [
        {
          "indexed": true,
          "internalType": "address",
          "name": "accessControls",
          "type": "address"
        }
      ],
      "name": "UpdateAccessControls",
      "type": "event"
    },
    {
      "anonymous": false,
      "inputs": [
        {
          "indexed": false,
          "internalType": "string",
          "name": "igUrl",
          "type": "string"
        },
        {
          "indexed": false,
          "internalType": "bool",
          "name": "status",
          "type": "bool"
        }
      ],
      "name": "UpdateAuctionStatus",
      "type": "event"
    },
    {
      "anonymous": false,
      "inputs": [
        {
          "indexed": false,
          "internalType": "uint256",
          "name": "bidLockTime",
          "type": "uint256"
        }
      ],
      "name": "UpdateBidLockTime",
      "type": "event"
    },
    {
      "anonymous": false,
      "inputs": [
        {
          "indexed": false,
          "internalType": "uint256",
          "name": "cancelFee",
          "type": "uint256"
        }
      ],
      "name": "UpdateCancelFee",
      "type": "event"
    },
    {
      "anonymous": false,
      "inputs": [
        {
          "indexed": false,
          "internalType": "uint256",
          "name": "minBidIncrement",
          "type": "uint256"
        }
      ],
      "name": "UpdateMinBidIncrement",
      "type": "event"
    },
    {
      "anonymous": false,
      "inputs": [
        {
          "indexed": false,
          "internalType": "uint256",
          "name": "platformFee",
          "type": "uint256"
        }
      ],
      "name": "UpdatePlatformFee",
      "type": "event"
    },
    {
      "anonymous": false,
      "inputs": [
        {
          "indexed": false,
          "internalType": "address payable",
          "name": "platformFeeRecipient",
          "type": "address"
        }
      ],
      "name": "UpdatePlatformFeeRecipient",
      "type": "event"
    },
    {
      "anonymous": false,
      "inputs": [
        {
          "indexed": false,
          "internalType": "uint256",
          "name": "resellFee",
          "type": "uint256"
        }
      ],
      "name": "UpdateResellFee",
      "type": "event"
    },
    {
      "inputs": [],
      "name": "accessControls",
      "outputs": [
        {
          "internalType": "contract MarketTradingAccessControls",
          "name": "",
          "type": "address"
        }
      ],
      "stateMutability": "view",
      "type": "function",
      "constant": true
    },
    {
      "inputs": [
        {
          "internalType": "string",
          "name": "",
          "type": "string"
        }
      ],
      "name": "auctionDetails",
      "outputs": [
        {
          "internalType": "uint256",
          "name": "tokenId",
          "type": "uint256"
        },
        {
          "internalType": "address",
          "name": "owner",
          "type": "address"
        }
      ],
      "stateMutability": "view",
      "type": "function",
      "constant": true
    },
    {
      "inputs": [],
      "name": "bidLockTime",
      "outputs": [
        {
          "internalType": "uint256",
          "name": "",
          "type": "uint256"
        }
      ],
      "stateMutability": "view",
      "type": "function",
      "constant": true
    },
    {
      "inputs": [],
      "name": "cancelFee",
      "outputs": [
        {
          "internalType": "uint256",
          "name": "",
          "type": "uint256"
        }
      ],
      "stateMutability": "view",
      "type": "function",
      "constant": true
    },
    {
      "inputs": [],
      "name": "creatorFee",
      "outputs": [
        {
          "internalType": "uint256",
          "name": "",
          "type": "uint256"
        }
      ],
      "stateMutability": "view",
      "type": "function",
      "constant": true
    },
    {
      "inputs": [
        {
          "internalType": "string",
          "name": "",
          "type": "string"
        }
      ],
      "name": "highestBids",
      "outputs": [
        {
          "internalType": "address payable",
          "name": "bidder",
          "type": "address"
        },
        {
          "internalType": "uint256",
          "name": "bid",
          "type": "uint256"
        },
        {
          "internalType": "uint256",
          "name": "lastBidTime",
          "type": "uint256"
        }
      ],
      "stateMutability": "view",
      "type": "function",
      "constant": true
    },
    {
      "inputs": [],
      "name": "isPaused",
      "outputs": [
        {
          "internalType": "bool",
          "name": "",
          "type": "bool"
        }
      ],
      "stateMutability": "view",
      "type": "function",
      "constant": true
    },
    {
      "inputs": [],
      "name": "marketTradingNft",
      "outputs": [
        {
          "internalType": "contract IMarketTradingNFT",
          "name": "",
          "type": "address"
        }
      ],
      "stateMutability": "view",
      "type": "function",
      "constant": true
    },
    {
      "inputs": [],
      "name": "minBidIncrement",
      "outputs": [
        {
          "internalType": "uint256",
          "name": "",
          "type": "uint256"
        }
      ],
      "stateMutability": "view",
      "type": "function",
      "constant": true
    },
    {
      "inputs": [],
      "name": "platformFee",
      "outputs": [
        {
          "internalType": "uint256",
          "name": "",
          "type": "uint256"
        }
      ],
      "stateMutability": "view",
      "type": "function",
      "constant": true
    },
    {
      "inputs": [],
      "name": "platformFeeRecipient",
      "outputs": [
        {
          "internalType": "address payable",
          "name": "",
          "type": "address"
        }
      ],
      "stateMutability": "view",
      "type": "function",
      "constant": true
    },
    {
      "inputs": [],
      "name": "resellFee",
      "outputs": [
        {
          "internalType": "uint256",
          "name": "",
          "type": "uint256"
        }
      ],
      "stateMutability": "view",
      "type": "function",
      "constant": true
    },
    {
      "inputs": [
        {
          "internalType": "string",
          "name": "_igUrl",
          "type": "string"
        }
      ],
      "name": "placeBid",
      "outputs": [],
      "stateMutability": "payable",
      "type": "function",
      "payable": true
    },
    {
      "inputs": [
        {
          "internalType": "string",
          "name": "_igUrl",
          "type": "string"
        }
      ],
      "name": "withdrawBid",
      "outputs": [],
      "stateMutability": "nonpayable",
      "type": "function"
    },
    {
      "inputs": [
        {
          "internalType": "string",
          "name": "_igUrl",
          "type": "string"
        },
        {
          "internalType": "address",
          "name": "_seller",
          "type": "address"
        }
      ],
      "name": "resultAuction",
      "outputs": [],
      "stateMutability": "nonpayable",
      "type": "function"
    },
    {
      "inputs": [],
      "name": "toggleIsPaused",
      "outputs": [],
      "stateMutability": "nonpayable",
      "type": "function"
    },
    {
      "inputs": [
        {
          "internalType": "uint256",
          "name": "_minBidIncrement",
          "type": "uint256"
        }
      ],
      "name": "updateMinBidIncrement",
      "outputs": [],
      "stateMutability": "nonpayable",
      "type": "function"
    },
    {
      "inputs": [
        {
          "internalType": "uint256",
          "name": "_bidLockTime",
          "type": "uint256"
        }
      ],
      "name": "updateBidLockTime",
      "outputs": [],
      "stateMutability": "nonpayable",
      "type": "function"
    },
    {
      "inputs": [
        {
          "internalType": "contract MarketTradingAccessControls",
          "name": "_accessControls",
          "type": "address"
        }
      ],
      "name": "updateAccessControls",
      "outputs": [],
      "stateMutability": "nonpayable",
      "type": "function"
    },
    {
      "inputs": [
        {
          "internalType": "address payable",
          "name": "_platformFeeRecipient",
          "type": "address"
        }
      ],
      "name": "updatePlatformFeeRecipient",
      "outputs": [],
      "stateMutability": "nonpayable",
      "type": "function"
    },
    {
      "inputs": [
        {
          "internalType": "uint256",
          "name": "_platformFee",
          "type": "uint256"
        }
      ],
      "name": "updatePlatformFee",
      "outputs": [],
      "stateMutability": "nonpayable",
      "type": "function"
    },
    {
      "inputs": [
        {
          "internalType": "uint256",
          "name": "_resellFee",
          "type": "uint256"
        }
      ],
      "name": "updateResellFee",
      "outputs": [],
      "stateMutability": "nonpayable",
      "type": "function"
    },
    {
      "inputs": [
        {
          "internalType": "uint256",
          "name": "_cancelFee",
          "type": "uint256"
        }
      ],
      "name": "updateCancelFee",
      "outputs": [],
      "stateMutability": "nonpayable",
      "type": "function"
    },
    {
      "inputs": [
        {
          "internalType": "string",
          "name": "_igUrl",
          "type": "string"
        }
      ],
      "name": "getHighestBidder",
      "outputs": [
        {
          "internalType": "address payable",
          "name": "_bidder",
          "type": "address"
        },
        {
          "internalType": "uint256",
          "name": "_bid",
          "type": "uint256"
        },
        {
          "internalType": "uint256",
          "name": "_lastBidTime",
          "type": "uint256"
        }
      ],
      "stateMutability": "view",
      "type": "function",
      "constant": true
    }
  ],
  "bytecode": "0x608060405262015180600555662386f26fc100006006556032600755601960085560646009556032600a553480156200003757600080fd5b5060405162002ca238038062002ca2833981810160405260608110156200005d57600080fd5b508051602082015160409092015160016000559091906001600160a01b038316620000ba5760405162461bcd60e51b815260040180806020018281038252602381526020018062002c556023913960400191505060405180910390fd5b6001600160a01b03821662000116576040805162461bcd60e51b815260206004820152601760248201527f4e465441756374696f6e3a20496e76616c6964204e4654000000000000000000604482015290519081900360640190fd5b6001600160a01b0381166200015d5760405162461bcd60e51b815260040180806020018281038252602a81526020018062002c78602a913960400191505060405180910390fd5b600480546001600160a01b038086166001600160a01b03199283161790925560038054858416908316179055600b8054928416929091169190911790556040517f4d95a0ad20082d2248fdfe8ceed0e2286b58402a845d33e341651f0f39e19b4990600090a1505050612a7f80620001d66000396000f3fe60806040526004361061014b5760003560e01c806387bd8371116100b6578063e88958dc1161006f578063e88958dc146106f5578063e967e60c1461070a578063eb13554f146107ae578063f5fe7f71146107c3578063f6205818146107f6578063f9613d7f1461080b5761014b565b806387bd83711461044e5780639e25249e1461050a578063aa0b5988146105bb578063b187bd26146105e5578063c09a936c1461060e578063c1165ded146106e05761014b565b8063335b115e11610108578063335b115e146102e55780634bc96f5f146102fa5780636ef3da94146103ab578063748365ef146103de578063777364711461040f5780637f415661146104395761014b565b8063083759e0146101505780630c25648f1461017c57806314025dcd1461025557806326232a2e1461027c578063290f2cbe146102915780632ab92a91146102bb575b600080fd5b34801561015c57600080fd5b5061017a6004803603602081101561017357600080fd5b5035610820565b005b34801561018857600080fd5b5061022d6004803603602081101561019f57600080fd5b810190602081018135600160201b8111156101b957600080fd5b8201836020820111156101cb57600080fd5b803590602001918460018302840111600160201b831117156101ec57600080fd5b91908080601f016020809104026020016040519081016040528093929190818152602001838380828437600092019190915250929550610918945050505050565b604080516001600160a01b039094168452602084019290925282820152519081900360600190f35b34801561026157600080fd5b5061026a6109a1565b60408051918252519081900360200190f35b34801561028857600080fd5b5061026a6109a7565b34801561029d57600080fd5b5061017a600480360360208110156102b457600080fd5b50356109ad565b3480156102c757600080fd5b5061017a600480360360208110156102de57600080fd5b5035610aa5565b3480156102f157600080fd5b5061026a610b9d565b34801561030657600080fd5b5061022d6004803603602081101561031d57600080fd5b810190602081018135600160201b81111561033757600080fd5b82018360208201111561034957600080fd5b803590602001918460018302840111600160201b8311171561036a57600080fd5b91908080601f016020809104026020016040519081016040528093929190818152602001838380828437600092019190915250929550610ba3945050505050565b3480156103b757600080fd5b5061017a600480360360208110156103ce57600080fd5b50356001600160a01b0316610bdd565b3480156103ea57600080fd5b506103f3610d29565b604080516001600160a01b039092168252519081900360200190f35b34801561041b57600080fd5b5061017a6004803603602081101561043257600080fd5b5035610d38565b34801561044557600080fd5b5061026a610e30565b34801561045a57600080fd5b5061017a6004803603604081101561047157600080fd5b810190602081018135600160201b81111561048b57600080fd5b82018360208201111561049d57600080fd5b803590602001918460018302840111600160201b831117156104be57600080fd5b91908080601f016020809104026020016040519081016040528093929190818152602001838380828437600092019190915250929550505090356001600160a01b03169150610e369050565b34801561051657600080fd5b5061017a6004803603602081101561052d57600080fd5b810190602081018135600160201b81111561054757600080fd5b82018360208201111561055957600080fd5b803590602001918460018302840111600160201b8311171561057a57600080fd5b91908080601f016020809104026020016040519081016040528093929190818152602001838380828437600092019190915250929550611848945050505050565b3480156105c757600080fd5b5061017a600480360360208110156105de57600080fd5b5035611b47565b3480156105f157600080fd5b506105fa611c3f565b604080519115158252519081900360200190f35b34801561061a57600080fd5b506106bf6004803603602081101561063157600080fd5b810190602081018135600160201b81111561064b57600080fd5b82018360208201111561065d57600080fd5b803590602001918460018302840111600160201b8311171561067e57600080fd5b91908080601f016020809104026020016040519081016040528093929190818152602001838380828437600092019190915250929550611c4f945050505050565b604080519283526001600160a01b0390911660208301528051918290030190f35b3480156106ec57600080fd5b5061026a611c7c565b34801561070157600080fd5b5061026a611c82565b61017a6004803603602081101561072057600080fd5b810190602081018135600160201b81111561073a57600080fd5b82018360208201111561074c57600080fd5b803590602001918460018302840111600160201b8311171561076d57600080fd5b91908080601f016020809104026020016040519081016040528093929190818152602001838380828437600092019190915250929550611c88945050505050565b3480156107ba57600080fd5b506103f3611f93565b3480156107cf57600080fd5b5061017a600480360360208110156107e657600080fd5b50356001600160a01b0316611fa2565b34801561080257600080fd5b506103f36120f8565b34801561081757600080fd5b5061017a612107565b6004546001600160a01b031663c395fcb3610839612223565b6040518263ffffffff1660e01b815260040180826001600160a01b0316815260200191505060206040518083038186803b15801561087657600080fd5b505afa15801561088a573d6000803e3d6000fd5b505050506040513d60208110156108a057600080fd5b50516108dd5760405162461bcd60e51b81526004018080602001828103825260368152602001806128826036913960400191505060405180910390fd5b60068190556040805182815290517f489b0441344cbdcb036bee4857de51567f580e9747166f76b581be803ca45fcb9181900360200190a150565b6000806000806001856040518082805190602001908083835b602083106109505780518252601f199092019160209182019101610931565b51815160209384036101000a60001901801990921691161790529201948552506040519384900301909220805460018201546002909201546001600160a01b03909116999198509650945050505050565b600a5481565b60075481565b6004546001600160a01b031663c395fcb36109c6612223565b6040518263ffffffff1660e01b815260040180826001600160a01b0316815260200191505060206040518083038186803b158015610a0357600080fd5b505afa158015610a17573d6000803e3d6000fd5b505050506040513d6020811015610a2d57600080fd5b5051610a6a5760405162461bcd60e51b81526004018080602001828103825260308152602001806129176030913960400191505060405180910390fd5b60088190556040805182815290517f399a6c3911d071a259b8013836e43414e95e69be2ce6604ba713bca6ee1e55249181900360200190a150565b6004546001600160a01b031663c395fcb3610abe612223565b6040518263ffffffff1660e01b815260040180826001600160a01b0316815260200191505060206040518083038186803b158015610afb57600080fd5b505afa158015610b0f573d6000803e3d6000fd5b505050506040513d6020811015610b2557600080fd5b5051610b625760405162461bcd60e51b815260040180806020018281038252603281526020018061258b6032913960400191505060405180910390fd5b60058190556040805182815290517f53a8c9989255bf6b6003fa69368c11a8ff1cb78a20ef3904766e703f08cd434c9181900360200190a150565b60065481565b8051602081830181018051600180835293830192909401919091209290528154908201546002909201546001600160a01b03909116919083565b6004546001600160a01b031663c395fcb3610bf6612223565b6040518263ffffffff1660e01b815260040180826001600160a01b0316815260200191505060206040518083038186803b158015610c3357600080fd5b505afa158015610c47573d6000803e3d6000fd5b505050506040513d6020811015610c5d57600080fd5b5051610c9a5760405162461bcd60e51b815260040180806020018281038252603581526020018061297a6035913960400191505060405180910390fd5b6001600160a01b038116610cdf5760405162461bcd60e51b815260040180806020018281038252602d815260200180612855602d913960400191505060405180910390fd5b600480546001600160a01b0319166001600160a01b0383169081179091556040517fb7a140127704195c46749cbcf048725c27a55237114201a7a621eefb759f247490600090a250565b6004546001600160a01b031681565b6004546001600160a01b031663c395fcb3610d51612223565b6040518263ffffffff1660e01b815260040180826001600160a01b0316815260200191505060206040518083038186803b158015610d8e57600080fd5b505afa158015610da2573d6000803e3d6000fd5b505050506040513d6020811015610db857600080fd5b5051610df55760405162461bcd60e51b81526004018080602001828103825260308152602001806129e56030913960400191505060405180910390fd5b600a8190556040805182815290517f11b33b958d97a3c1e261d8c3c098d6b9857232af0de7de0df10a56a59cef1f0c9181900360200190a150565b60055481565b60026000541415610e8e576040805162461bcd60e51b815260206004820152601f60248201527f5265656e7472616e637947756172643a207265656e7472616e742063616c6c00604482015290519081900360640190fd5b60026000556004546001600160a01b031663c395fcb3610eac612223565b6040518263ffffffff1660e01b815260040180826001600160a01b0316815260200191505060206040518083038186803b158015610ee957600080fd5b505afa158015610efd573d6000803e3d6000fd5b505050506040513d6020811015610f1357600080fd5b505180610f9e57506004546001600160a01b031663113b0ab2610f34612223565b6040518263ffffffff1660e01b815260040180826001600160a01b0316815260200191505060206040518083038186803b158015610f7157600080fd5b505afa158015610f85573d6000803e3d6000fd5b505050506040513d6020811015610f9b57600080fd5b50515b610fd95760405162461bcd60e51b81526004018080602001828103825260408152602001806127af6040913960400191505060405180910390fd5b6001600160a01b03811661101e5760405162461bcd60e51b815260040180806020018281038252603b815260200180612550603b913960400191505060405180910390fd5b60006001836040518082805190602001908083835b602083106110525780518252601f199092019160209182019101611033565b51815160209384036101000a60001901801990921691161790529201948552506040519384900301909220805460018201549194506001600160a01b0316925090506103e8826110d35760405162461bcd60e51b81526004018080602001828103825260268152602001806126286026913960400191505060405180910390fd5b6001866040518082805190602001908083835b602083106111055780518252601f1990920191602091820191016110e6565b51815160209384036101000a6000190180199092169116179052920194855250604051938490038101842080546001600160a01b031916815560006001820181905560029182018190558b5190959194508b935090918291908401908083835b602083106111845780518252601f199092019160209182019101611165565b51815160209384036101000a60001901801990921691161790529201948552506040519384900301909220805490935060009250829150611311576000600360009054906101000a90046001600160a01b03166001600160a01b031663fa8509c8888c8c6040518463ffffffff1660e01b815260040180846001600160a01b0316815260200180602001836001600160a01b03168152602001828103825284818151815260200191508051906020019080838360005b8381101561125257818101518382015260200161123a565b50505050905090810190601f16801561127f5780820380516001836020036101000a031916815260200191505b50945050505050602060405180830381600087803b1580156112a057600080fd5b505af11580156112b4573d6000803e3d6000fd5b505050506040513d60208110156112ca57600080fd5b50518085556001850180546001600160a01b0319166001600160a01b038a16179055600754909150611309908690611303908990612227565b90612289565b92505061149c565b6003548354604080516331a9108f60e11b81526004810192909252516001600160a01b03808c16931691636352211e916024808301926020929190829003018186803b15801561136057600080fd5b505afa158015611374573d6000803e3d6000fd5b505050506040513d602081101561138a57600080fd5b50516001600160a01b0316146113d15760405162461bcd60e51b81526004018080602001828103825260348152602001806127ef6034913960400191505060405180910390fd5b6003546001840154845460408051632142170760e11b81526001600160a01b0393841660048201528a8416602482015260448101929092525191909216916342842e0e91606480830192600092919082900301818387803b15801561143557600080fd5b505af1158015611449573d6000803e3d6000fd5b505050506001830180546001600160a01b0319166001600160a01b03881617905560085461147e908590611303908890612227565b9150611499846113036009548861222790919063ffffffff16565b90505b600354835460408051639920fae360e01b8152600481019290925260248201889052516001600160a01b0390921691639920fae39160448082019260009290919082900301818387803b1580156114f257600080fd5b505af1158015611506573d6000803e3d6000fd5b5050600b54604051600093506001600160a01b03909116915084908381818185875af1925050503d8060008114611559576040519150601f19603f3d011682016040523d82523d6000602084013e61155e565b606091505b505090508061159e5760405162461bcd60e51b8152600401808060200182810382526035815260200180612a156035913960400191505060405180910390fd5b60006001600160a01b038a166115be846115b88a886122f0565b906122f0565b604051600081818185875af1925050503d80600081146115fa576040519150601f19603f3d011682016040523d82523d6000602084013e6115ff565b606091505b505090508061163f5760405162461bcd60e51b815260040180806020018281038252605381526020018061275c6053913960600191505060405180910390fd5b82156117505760035485546040805163214e64bd60e11b81526004810192909252516000926001600160a01b03169163429cc97a916024808301926020929190829003018186803b15801561169357600080fd5b505afa1580156116a7573d6000803e3d6000fd5b505050506040513d60208110156116bd57600080fd5b50516040516001600160a01b03909116908590600081818185875af1925050503d8060008114611709576040519150601f19603f3d011682016040523d82523d6000602084013e61170e565b606091505b505090508061174e5760405162461bcd60e51b81526004018080602001828103825260348152602001806128b86034913960400191505060405180910390fd5b505b84546001600160a01b038916907f315fbee9c8abdc667a63a936d454c9d6316c997a00503019d851d4800db5eab48c8e61178a8c8a6122f0565b60405180846001600160a01b031681526020018060200180602001848152602001838103835285818151815260200191508051906020019080838360005b838110156117e05781810151838201526020016117c8565b50505050905090810190601f16801561180d5780820380516001836020036101000a031916815260200191505b50928303905250600681526531206f66203160d01b60208201526040805191829003019350915050a350506001600055505050505050505050565b600260005414156118a0576040805162461bcd60e51b815260206004820152601f60248201527f5265656e7472616e637947756172643a207265656e7472616e742063616c6c00604482015290519081900360640190fd5b6002600055600b54600160a01b900460ff1615611904576040805162461bcd60e51b815260206004820152601c60248201527f46756e6374696f6e2069732063757272656e746c792070617573656400000000604482015290519081900360640190fd5b60006001826040518082805190602001908083835b602083106119385780518252601f199092019160209182019101611919565b51815160209384036101000a60001901801990921691161790529201948552506040519384900301909220925061197191506122239050565b81546001600160a01b039081169116146119bc5760405162461bcd60e51b81526004018080602001828103825260368152602001806129af6036913960400191505060405180910390fd5b6005548160020154016119cd61234d565b1015611a0a5760405162461bcd60e51b815260040180806020018281038252603d8152602001806126fe603d913960400191505060405180910390fd5b6000816001015490506001836040518082805190602001908083835b60208310611a455780518252601f199092019160209182019101611a26565b51815160209384036101000a6000190180199092169116179052920194855250604051938490030190922080546001600160a01b031916815560006001820181905560029091015550611aa19050611a9b612223565b82612351565b611aa9612223565b6001600160a01b0316836040518082805190602001908083835b60208310611ae25780518252601f199092019160209182019101611ac3565b51815160209384036101000a60001901801990921691161790526040805192909401829003822088835293519395507f157b25fb1ccb8d40e76c151b05a69beef7c17fef7757a9278e68da077c924a2994509083900301919050a35050600160005550565b6004546001600160a01b031663c395fcb3611b60612223565b6040518263ffffffff1660e01b815260040180826001600160a01b0316815260200191505060206040518083038186803b158015611b9d57600080fd5b505afa158015611bb1573d6000803e3d6000fd5b505050506040513d6020811015611bc757600080fd5b5051611c045760405162461bcd60e51b81526004018080602001828103825260328152602001806128236032913960400191505060405180910390fd5b60078190556040805182815290517f2644fd26359c107ff7991b6dfc36ce902b334ce4e3891bbecacc5922aa620efa9181900360200190a150565b600b54600160a01b900460ff1681565b8051602081830181018051600282529282019190930120915280546001909101546001600160a01b031682565b60085481565b60095481565b60026000541415611ce0576040805162461bcd60e51b815260206004820152601f60248201527f5265656e7472616e637947756172643a207265656e7472616e742063616c6c00604482015290519081900360640190fd5b6002600055600b54600160a01b900460ff1615611d44576040805162461bcd60e51b815260206004820152601c60248201527f46756e6374696f6e2069732063757272656e746c792070617573656400000000604482015290519081900360640190fd5b611d5d611d4f612223565b6001600160a01b03166124ef565b15611d995760405162461bcd60e51b815260040180806020018281038252602b8152602001806128ec602b913960400191505060405180910390fd5b600034905060006001836040518082805190602001908083835b60208310611dd25780518252601f199092019160209182019101611db3565b51815160209384036101000a60001901801990921691161790529201948552506040519384900301909220600654600182015491945060009350611e1692506124f5565b905080831015611e575760405162461bcd60e51b81526004018080602001828103825260348152602001806126896034913960400191505060405180910390fd5b81546001600160a01b031615611e815781546001830154611e81916001600160a01b031690612351565b611e89612223565b82546001600160a01b0319166001600160a01b039190911617825560018201839055611eb361234d565b6002830155611ec0612223565b6001600160a01b03167f13e00374cfcb71bed76692cb4070670a8571ef65691cd9670c258ec546a6bb758585604051808060200180602001848152602001838103835285818151815260200191508051906020019080838360005b83811015611f33578181015183820152602001611f1b565b50505050905090810190601f168015611f605780820380516001836020036101000a031916815260200191505b50928303905250600681526531206f66203160d01b602082015260408051918290030192509050a2505060016000555050565b600b546001600160a01b031681565b6004546001600160a01b031663c395fcb3611fbb612223565b6040518263ffffffff1660e01b815260040180826001600160a01b0316815260200191505060206040518083038186803b158015611ff857600080fd5b505afa15801561200c573d6000803e3d6000fd5b505050506040513d602081101561202257600080fd5b505161205f5760405162461bcd60e51b815260040180806020018281038252603b81526020018061264e603b913960400191505060405180910390fd5b6001600160a01b0381166120a45760405162461bcd60e51b81526004018080602001828103825260338152602001806129476033913960400191505060405180910390fd5b600b80546001600160a01b0383166001600160a01b0319909116811790915560408051918252517fe57e7c1f36cc83fade34e32351e6eee7eb9da532662b1b5da10c631e8222aca79181900360200190a150565b6003546001600160a01b031681565b6004546001600160a01b031663c395fcb3612120612223565b6040518263ffffffff1660e01b815260040180826001600160a01b0316815260200191505060206040518083038186803b15801561215d57600080fd5b505afa158015612171573d6000803e3d6000fd5b505050506040513d602081101561218757600080fd5b50516121c45760405162461bcd60e51b815260040180806020018281038252602f8152602001806125f9602f913960400191505060405180910390fd5b600b805460ff600160a01b808304821615810260ff60a01b1990931692909217928390556040805192909304161515815290517f9077d36bc00859b5c3f320310707208543dd35092cb0a0fe117d0c6a558b148b9181900360200190a1565b3390565b60008261223657506000612283565b8282028284828161224357fe5b04146122805760405162461bcd60e51b815260040180806020018281038252602181526020018061273b6021913960400191505060405180910390fd5b90505b92915050565b60008082116122df576040805162461bcd60e51b815260206004820152601a60248201527f536166654d6174683a206469766973696f6e206279207a65726f000000000000604482015290519081900360640190fd5b8183816122e857fe5b049392505050565b600082821115612347576040805162461bcd60e51b815260206004820152601e60248201527f536166654d6174683a207375627472616374696f6e206f766572666c6f770000604482015290519081900360640190fd5b50900390565b4290565b60006103e89050600061237382611303600a548661222790919063ffffffff16565b600b546040519192506000916001600160a01b039091169083908381818185875af1925050503d80600081146123c5576040519150601f19603f3d011682016040523d82523d6000602084013e6123ca565b606091505b505090508061240a5760405162461bcd60e51b815260040180806020018281038252603c8152602001806125bd603c913960400191505060405180910390fd5b60006001600160a01b03861661242086856122f0565b604051600081818185875af1925050503d806000811461245c576040519150601f19603f3d011682016040523d82523d6000602084013e612461565b606091505b50509050806124a15760405162461bcd60e51b81526004018080602001828103825260418152602001806126bd6041913960600191505060405180910390fd5b6001600160a01b0386167f8377883650d2137d6e6d67bcf2dbb9b1dab287d68240a17ff910b9fb7a0ad5ff6124d687866122f0565b60408051918252519081900360200190a2505050505050565b3b151590565b600082820183811015612280576040805162461bcd60e51b815260206004820152601b60248201527f536166654d6174683a206164646974696f6e206f766572666c6f770000000000604482015290519081900360640190fdfe4e465441756374696f6e2e726573756c7441756374696f6e3a2053656c6c65722073686f756c64206e6f74206265207a65726f20616464726573734e465441756374696f6e2e7570646174654269644c6f636b54696d653a2053656e646572206d7573742062652061646d696e4e465441756374696f6e2e5f726566756e64486967686573744269646465723a204661696c656420746f2073656e6420706c6174666f726d206665654e465441756374696f6e2e746f67676c6549735061757365643a2053656e646572206d7573742062652061646d696e4e465441756374696f6e2e726573756c7441756374696f6e3a206e6f206f70656e20626964734e465441756374696f6e2e757064617465506c6174666f726d466565526563697069656e743a2053656e646572206d7573742062652061646d696e4e465441756374696f6e2e706c6163654269643a204661696c656420746f206f75746269642068696768657374206269646465724e465441756374696f6e2e5f726566756e64486967686573744269646465723a206661696c656420746f20726566756e642070726576696f7573206269646465724e465441756374696f6e2e77697468647261774269643a2043616e2774207769746864726177206265666f7265206c6f636b74696d6520706173736564536166654d6174683a206d756c7469706c69636174696f6e206f766572666c6f774e465441756374696f6e2e726573756c7441756374696f6e3a204661696c656420746f2073656e642074686520696e7374616772616d20706f73742063726561746f7220746865697220726f79616c746965734e465441756374696f6e2e726573756c7441756374696f6e3a2053656e646572206d7573742062652061646d696e206f7220736d61727420636f6e74726163744e465441756374696f6e2e726573756c7441756374696f6e3a2073656c6c6572206973206e6f74206f776e6572206f66204e46544e465441756374696f6e2e757064617465506c6174666f726d4665653a2053656e646572206d7573742062652061646d696e4e465441756374696f6e2e757064617465416363657373436f6e74726f6c733a205a65726f20416464726573734e465441756374696f6e2e7570646174654d696e426964496e6372656d656e743a2053656e646572206d7573742062652061646d696e4e465441756374696f6e2e726573756c7441756374696f6e3a204661696c656420746f2073656e642063726561746f72206665654e465441756374696f6e2e706c6163654269643a204e6f20636f6e747261637473207065726d69747465644e465441756374696f6e2e757064617465526573656c6c4665653a2053656e646572206d7573742062652061646d696e4e465441756374696f6e2e757064617465506c6174666f726d466565526563697069656e743a205a65726f20616464726573734e465441756374696f6e2e757064617465416363657373436f6e74726f6c733a2053656e646572206d7573742062652061646d696e4e465441756374696f6e2e77697468647261774269643a20596f7520617265206e6f74207468652068696768657374206269646465724e465441756374696f6e2e75706461746543616e63656c4665653a2053656e646572206d7573742062652061646d696e4e465441756374696f6e2e726573756c7441756374696f6e3a204661696c656420746f2073656e6420706c6174666f726d20666565a26469706673582212200e244e2fa3182e430035dca8c1c69ff495862396c2c56aff88473fdc2da0512964736f6c634300060c00334e465441756374696f6e3a20496e76616c69642041636365737320436f6e74726f6c734e465441756374696f6e3a20496e76616c696420506c6174666f726d2046656520526563697069656e74",
  "immutableReferences": {},
  "source": "// SPDX-License-Identifier: MIT\r\n\r\npragma solidity 0.6.12;\r\n\r\nimport \"@openzeppelin/contracts/GSN/Context.sol\";\r\nimport \"@openzeppelin/contracts/math/SafeMath.sol\";\r\nimport \"@openzeppelin/contracts/utils/ReentrancyGuard.sol\";\r\nimport \"@openzeppelin/contracts/utils/Address.sol\";\r\nimport \"./AccessControl/MarketTradingAccessControls.sol\";\r\nimport \"./NFT/IMarketTradingNFT.sol\";\r\n\r\n/**\r\n * @notice Primary sale auction contract for MarketTrading NFTs\r\n */\r\ncontract NFTAuction is Context, ReentrancyGuard {\r\n    using SafeMath for uint256;\r\n    using Address for address payable;\r\n\r\n    /// @notice Event emitted only on construction. To be used by indexers\r\n    event NFTAuctionContractDeployed();\r\n\r\n    event PauseToggled(\r\n        bool isPaused\r\n    );\r\n\r\n    event UpdateAccessControls(\r\n        address indexed accessControls\r\n    );\r\n\r\n    event UpdatePlatformFeeRecipient(\r\n        address payable platformFeeRecipient\r\n    );\r\n\r\n    event UpdatePlatformFee(\r\n        uint256 platformFee\r\n    );\r\n\r\n    event UpdateResellFee(\r\n        uint256 resellFee\r\n    );\r\n\r\n    event UpdateCancelFee(\r\n        uint256 cancelFee\r\n    );\r\n\r\n    event UpdateMinBidIncrement(\r\n        uint256 minBidIncrement\r\n    );\r\n\r\n    event UpdateBidLockTime(\r\n        uint256 bidLockTime\r\n    );\r\n\r\n    event UpdateAuctionStatus(\r\n        string igUrl,\r\n        bool status\r\n    );\r\n\r\n    event BidPlaced(\r\n        string igUrl,\r\n        string edition,\r\n        address indexed bidder,\r\n        uint256 bid\r\n    );\r\n\r\n    event BidWithdrawn(\r\n        string indexed igUrl,\r\n        address indexed bidder,\r\n        uint256 bid\r\n    );\r\n\r\n    event BidRefunded(\r\n        address indexed bidder,\r\n        uint256 bid\r\n    );\r\n\r\n    event AuctionResulted(\r\n        uint256 indexed tokenId,\r\n        address seller,\r\n        string tokenUri,\r\n        string edition,\r\n        address indexed winner,\r\n        uint256 winningBid\r\n    );\r\n\r\n    /// @notice Information about the sender that placed a bit on an auction\r\n    struct HighestBid {\r\n        address payable bidder;\r\n        uint256 bid;\r\n        uint256 lastBidTime;\r\n    }\r\n\r\n    struct AuctionDetail {\r\n        uint256 tokenId;\r\n        address owner;\r\n    }\r\n\r\n    /// @notice instagram URL -> highest bidder info (if a bid has been received)\r\n    mapping(string => HighestBid) public highestBids;\r\n\r\n    /// @notice instagram URL -> Auction finished info \r\n    mapping(string => AuctionDetail) public auctionDetails;\r\n\r\n    /// @notice NFT - the only NFT that can be auctioned in this contract\r\n    IMarketTradingNFT public marketTradingNft;\r\n\r\n    /// @notice responsible for enforcing admin access\r\n    MarketTradingAccessControls public accessControls;\r\n    \r\n    /// @notice globally bid lock time, bidders can't withdraw bid before bidLockTime.\r\n    uint256 public bidLockTime = 1 days;\r\n\r\n    /// @notice globally and across all auctions, the amount by which a bid has to increase\r\n    uint256 public minBidIncrement = 0.01 ether;\r\n\r\n    /// @notice global platform fee, assumed to always be to 1 decimal place i.e. 50 = 5.0%\r\n    uint256 public platformFee = 50;\r\n\r\n    /// @notice global resell platform fee, assumed to always be to 1 decimal place i.e. 25 = 2.5%\r\n    uint256 public resellFee = 25;\r\n\r\n    /// @notice global creator fee, assumed to always be to 1 decimal place i.e. 100 = 10.0%\r\n    uint256 public creatorFee = 100;\r\n\r\n    /// @notice global cancel fee, assumed to always be to 1 decimal place i.e. 50 = 5.0%\r\n    uint256 public cancelFee = 50;\r\n\r\n    /// @notice where to send platform fee funds to\r\n    address payable public platformFeeRecipient;\r\n\r\n    /// @notice for switching off auction creations, bids and withdrawals\r\n    bool public isPaused;\r\n\r\n    modifier whenNotPaused() {\r\n        require(!isPaused, \"Function is currently paused\");\r\n        _;\r\n    }\r\n\r\n    constructor(\r\n        MarketTradingAccessControls _accessControls,\r\n        IMarketTradingNFT _marketTradingNft,\r\n        address payable _platformFeeRecipient\r\n    ) public {\r\n        // Check inputed addresses are not zero address\r\n        require(address(_accessControls) != address(0), \"NFTAuction: Invalid Access Controls\");\r\n        require(address(_marketTradingNft) != address(0), \"NFTAuction: Invalid NFT\");\r\n        require(_platformFeeRecipient != address(0), \"NFTAuction: Invalid Platform Fee Recipient\");\r\n\r\n        accessControls = _accessControls;\r\n        marketTradingNft = _marketTradingNft;\r\n        platformFeeRecipient = _platformFeeRecipient;\r\n\r\n        emit NFTAuctionContractDeployed();\r\n    }\r\n\r\n\r\n    /**\r\n     @notice Places a new bid, out bidding the existing bidder if found and criteria is reached\r\n     @dev Only callable when the auction is open\r\n     @dev Bids from smart contracts are prohibited to prevent griefing with always reverting receiver\r\n     @param _igUrl Instagram URL of the fake NFT\r\n     */\r\n    function placeBid(string memory _igUrl) external payable nonReentrant whenNotPaused {\r\n        require(_msgSender().isContract() == false, \"NFTAuction.placeBid: No contracts permitted\");\r\n\r\n        uint256 bidAmount = msg.value;\r\n\r\n        // Ensure bid adheres to outbid increment and threshold\r\n        HighestBid storage highestBid = highestBids[_igUrl];\r\n        uint256 minBidRequired = highestBid.bid.add(minBidIncrement);\r\n        require(bidAmount >= minBidRequired, \"NFTAuction.placeBid: Failed to outbid highest bidder\");\r\n\r\n        // Refund existing top bidder if found\r\n        if (highestBid.bidder != address(0)) {\r\n            _refundHighestBidder(highestBid.bidder, highestBid.bid);\r\n        }\r\n\r\n        // assign top bidder and bid time\r\n        highestBid.bidder = _msgSender();\r\n        highestBid.bid = bidAmount;\r\n        highestBid.lastBidTime = _getNow();\r\n\r\n        emit BidPlaced(_igUrl, \"1 of 1\", _msgSender(), bidAmount);\r\n    }\r\n\r\n    /**\r\n     @notice Given a sender who has the highest bid on a NFT, allows them to withdraw their bid\r\n     @dev Only callable by the existing top bidder\r\n     @param _igUrl Instagram URL of the fake NFT\r\n     */\r\n    function withdrawBid(string memory _igUrl) external nonReentrant whenNotPaused {\r\n        HighestBid storage highestBid = highestBids[_igUrl];\r\n\r\n        // Ensure highest bidder is the caller\r\n        require(highestBid.bidder == _msgSender(), \"NFTAuction.withdrawBid: You are not the highest bidder\");\r\n\r\n        require(_getNow() >= highestBid.lastBidTime + bidLockTime, \"NFTAuction.withdrawBid: Can't withdraw before locktime passed\");\r\n\r\n        uint256 previousBid = highestBid.bid;\r\n\r\n        // Clean up the existing top bid\r\n        delete highestBids[_igUrl];\r\n\r\n        // Refund the top bidder\r\n        _refundHighestBidder(_msgSender(), previousBid);\r\n\r\n        emit BidWithdrawn(_igUrl, _msgSender(), previousBid);\r\n    }\r\n\r\n    //////////\r\n    // Admin /\r\n    //////////\r\n\r\n    /**\r\n     @notice Results a finished auction\r\n     @dev Only admin or smart contract\r\n     @dev Auction can only be resulted if there has been a bidder and reserve met.\r\n     @dev If there have been no bids, the auction needs to be cancelled instead using `cancelAuction()`\r\n     @param _igUrl Instagram URL of the fake NFT\r\n     @param _seller The creator of Instagram Post\r\n     */\r\n    function resultAuction(string memory _igUrl, address _seller) external nonReentrant {\r\n        require(\r\n            accessControls.hasAdminRole(_msgSender()) || accessControls.hasSmartContractRole(_msgSender()),\r\n            \"NFTAuction.resultAuction: Sender must be admin or smart contract\"\r\n        );\r\n\r\n        // Ensure seller is not zero address\r\n        require(_seller != address(0), \"NFTAuction.resultAuction: Seller should not be zero address\");\r\n\r\n        // Get info on who the highest bidder is\r\n        HighestBid storage highestBid = highestBids[_igUrl];\r\n        address winner = highestBid.bidder;\r\n        uint256 winningBid = highestBid.bid;\r\n        uint256 maxShare = 1000;\r\n\r\n        // Ensure there is a winner\r\n        require(winner != address(0), \"NFTAuction.resultAuction: no open bids\");\r\n\r\n        // Clean up the highest bid\r\n        delete highestBids[_igUrl];\r\n        \r\n        AuctionDetail storage auctionDetail = auctionDetails[_igUrl];\r\n\r\n        uint256 platformFeeInETH;\r\n        uint256 creatorFeeInETH;\r\n\r\n        if (auctionDetail.tokenId == 0)\r\n        {\r\n            // Mint NFT to the highest bidder.\r\n            uint256 _tokenId = marketTradingNft.mint(winner, _igUrl, _seller);\r\n            auctionDetail.tokenId = _tokenId;\r\n            auctionDetail.owner = winner;\r\n\r\n            // Work out platform fee from above reserve amount\r\n            platformFeeInETH = winningBid.mul(platformFee).div(maxShare);\r\n        }\r\n        else {\r\n            // Transfer NFT to the new higgest bidder\r\n            require(marketTradingNft.ownerOf(auctionDetail.tokenId) == _seller,\"NFTAuction.resultAuction: seller is not owner of NFT\");\r\n\r\n            marketTradingNft.safeTransferFrom(auctionDetail.owner, winner, auctionDetail.tokenId);\r\n            auctionDetail.owner = winner;\r\n\r\n            // Work out platform fee and creator fee from above reserve amount\r\n            platformFeeInETH = winningBid.mul(resellFee).div(maxShare);\r\n            creatorFeeInETH = winningBid.mul(creatorFee).div(maxShare);\r\n        }\r\n\r\n        // Record the primary sale price for the NFT\r\n        marketTradingNft.setPrimarySalePrice(auctionDetail.tokenId, winningBid);\r\n\r\n        // Send platform fee\r\n        (bool platformTransferSuccess,) = platformFeeRecipient.call{value : platformFeeInETH}(\"\");\r\n        require(platformTransferSuccess, \"NFTAuction.resultAuction: Failed to send platform fee\");\r\n\r\n        // Send remaining to seller\r\n        (bool sellerTransferSuccess,) = _seller.call{value : winningBid.sub(platformFeeInETH).sub(creatorFeeInETH)}(\"\");\r\n        require(sellerTransferSuccess, \"NFTAuction.resultAuction: Failed to send the instagram post creator their royalties\");\r\n\r\n        if(creatorFeeInETH > 0) {\r\n            // Send creator fee\r\n            (bool creatorTransferSuccess,) = marketTradingNft.postCreators(auctionDetail.tokenId).call{value : creatorFeeInETH}(\"\");\r\n            require(creatorTransferSuccess, \"NFTAuction.resultAuction: Failed to send creator fee\");\r\n        }\r\n\r\n        emit AuctionResulted(auctionDetail.tokenId, _seller, _igUrl, \"1 of 1\", winner, winningBid.sub(platformFeeInETH));\r\n    }\r\n\r\n    /**\r\n     @notice Toggling the pause flag\r\n     @dev Only admin\r\n     */\r\n    function toggleIsPaused() external {\r\n        require(accessControls.hasAdminRole(_msgSender()), \"NFTAuction.toggleIsPaused: Sender must be admin\");\r\n        isPaused = !isPaused;\r\n        emit PauseToggled(isPaused);\r\n    }\r\n    \r\n    /**\r\n     @notice Update the amount by which bids have to increase, across all auctions\r\n     @dev Only admin\r\n     @param _minBidIncrement New bid step in WEI\r\n     */\r\n    function updateMinBidIncrement(uint256 _minBidIncrement) external {\r\n        require(accessControls.hasAdminRole(_msgSender()), \"NFTAuction.updateMinBidIncrement: Sender must be admin\");\r\n        minBidIncrement = _minBidIncrement;\r\n        emit UpdateMinBidIncrement(_minBidIncrement);\r\n    }\r\n\r\n    /**\r\n     @notice Update the lock time of the higgest bid, before locktime passed the highest bidder can't cancel the auction\r\n     @dev Only admin\r\n     @param _bidLockTime New bid lock time\r\n     */\r\n    function updateBidLockTime(uint256 _bidLockTime) external {\r\n        require(accessControls.hasAdminRole(_msgSender()), \"NFTAuction.updateBidLockTime: Sender must be admin\");\r\n        bidLockTime = _bidLockTime;\r\n        emit UpdateBidLockTime(_bidLockTime);\r\n    }   \r\n\r\n    /**\r\n     @notice Method for updating the access controls contract used by the NFT\r\n     @dev Only admin\r\n     @param _accessControls Address of the new access controls contract (Cannot be zero address)\r\n     */\r\n    function updateAccessControls(MarketTradingAccessControls _accessControls) external {\r\n        require(\r\n            accessControls.hasAdminRole(_msgSender()),\r\n            \"NFTAuction.updateAccessControls: Sender must be admin\"\r\n        );\r\n\r\n        require(address(_accessControls) != address(0), \"NFTAuction.updateAccessControls: Zero Address\");\r\n\r\n        accessControls = _accessControls;\r\n        emit UpdateAccessControls(address(_accessControls));\r\n    }\r\n\r\n    /**\r\n     @notice Method for updating platform fee address\r\n     @dev Only admin\r\n     @param _platformFeeRecipient payable address the address to sends the funds to\r\n     */\r\n    function updatePlatformFeeRecipient(address payable _platformFeeRecipient) external {\r\n        require(\r\n            accessControls.hasAdminRole(_msgSender()),\r\n            \"NFTAuction.updatePlatformFeeRecipient: Sender must be admin\"\r\n        );\r\n\r\n        require(_platformFeeRecipient != address(0), \"NFTAuction.updatePlatformFeeRecipient: Zero address\");\r\n\r\n        platformFeeRecipient = _platformFeeRecipient;\r\n        emit UpdatePlatformFeeRecipient(_platformFeeRecipient);\r\n    }\r\n\r\n    /**\r\n     @notice Method for updating platform fee \r\n     @dev Only admin\r\n     @param _platformFee New platform fee\r\n     */\r\n    function updatePlatformFee(uint256 _platformFee) external {\r\n        require(\r\n            accessControls.hasAdminRole(_msgSender()),\r\n            \"NFTAuction.updatePlatformFee: Sender must be admin\"\r\n        );\r\n\r\n        platformFee = _platformFee;\r\n        emit UpdatePlatformFee(_platformFee);\r\n    }\r\n\r\n    /**\r\n     @notice Method for updating resell fee \r\n     @dev Only admin\r\n     @param _resellFee New resell fee\r\n     */\r\n    function updateResellFee(uint256 _resellFee) external {\r\n        require(\r\n            accessControls.hasAdminRole(_msgSender()),\r\n            \"NFTAuction.updateResellFee: Sender must be admin\"\r\n        );\r\n\r\n        resellFee = _resellFee;\r\n        emit UpdateResellFee(_resellFee);\r\n    }\r\n\r\n    /**\r\n     @notice Method for updating cancel fee \r\n     @dev Only admin\r\n     @param _cancelFee New cancel fee\r\n     */\r\n    function updateCancelFee(uint256 _cancelFee) external {\r\n        require(\r\n            accessControls.hasAdminRole(_msgSender()),\r\n            \"NFTAuction.updateCancelFee: Sender must be admin\"\r\n        );\r\n\r\n        cancelFee = _cancelFee;\r\n        emit UpdateCancelFee(_cancelFee);\r\n    }\r\n    ///////////////\r\n    // Accessors //\r\n    ///////////////\r\n\r\n    /**\r\n     @notice Method for getting all info about the highest bidder\r\n     @param _igUrl Instagram URL of the fake NFT\r\n     */\r\n    function getHighestBidder(string memory _igUrl) external view returns (address payable _bidder, uint256 _bid, uint256 _lastBidTime) {\r\n        HighestBid storage highestBid = highestBids[_igUrl];\r\n        return (highestBid.bidder, highestBid.bid, highestBid.lastBidTime);\r\n    }\r\n\r\n    /////////////////////////\r\n    // Internal and Private /\r\n    /////////////////////////\r\n\r\n    function _getNow() internal virtual view returns (uint256) {\r\n        return block.timestamp;\r\n    }\r\n\r\n    /**\r\n     @notice Used for sending back escrowed funds from a previous bid\r\n     @param _currentHighestBidder Address of the last highest bidder\r\n     @param _currentHighestBid Ether amount in WEI that the bidder sent when placing their bid\r\n     */\r\n    function _refundHighestBidder(address payable _currentHighestBidder, uint256 _currentHighestBid) private {\r\n        uint256 maxShare = 1000;\r\n\r\n        // Work out platform fee from above reserve amount\r\n        uint256 platformFeeInETH = _currentHighestBid.mul(cancelFee).div(maxShare);\r\n\r\n        // Send platform fee\r\n        (bool platformTransferSuccess,) = platformFeeRecipient.call{value : platformFeeInETH}(\"\");\r\n        require(platformTransferSuccess, \"NFTAuction._refundHighestBidder: Failed to send platform fee\");\r\n\r\n        // refund previous highest bid - platform fee (if bid exists)\r\n        (bool successRefund,) = _currentHighestBidder.call{value : _currentHighestBid.sub(platformFeeInETH)}(\"\");\r\n        require(successRefund, \"NFTAuction._refundHighestBidder: failed to refund previous bidder\");\r\n\r\n        emit BidRefunded(_currentHighestBidder, _currentHighestBid.sub(platformFeeInETH));\r\n    }\r\n}\r\n",
  "sourcePath": "C:/Users/glory/works/nick/blockchain/insta-nft/instagram-offer-nft/contracts/NFTAuction.sol",
  "compiler": {
    "name": "solc",
    "version": "0.6.12+commit.27d51765.Emscripten.clang"
  },
  "schemaVersion": "3.3.4",
  "updatedAt": "2021-05-05T04:12:27.005Z",
  "networkType": "ethereum",
  "devdoc": {
    "kind": "dev",
    "methods": {
      "getHighestBidder(string)": {
        "params": {
          "_igUrl": "Instagram URL of the fake NFT"
        }
      },
      "placeBid(string)": {
        "details": "Only callable when the auction is openBids from smart contracts are prohibited to prevent griefing with always reverting receiver",
        "params": {
          "_igUrl": "Instagram URL of the fake NFT"
        }
      },
      "resultAuction(string,address)": {
        "details": "Only admin or smart contractAuction can only be resulted if there has been a bidder and reserve met.If there have been no bids, the auction needs to be cancelled instead using `cancelAuction()`",
        "params": {
          "_igUrl": "Instagram URL of the fake NFT",
          "_seller": "The creator of Instagram Post"
        }
      },
      "toggleIsPaused()": {
        "details": "Only admin"
      },
      "updateAccessControls(address)": {
        "details": "Only admin",
        "params": {
          "_accessControls": "Address of the new access controls contract (Cannot be zero address)"
        }
      },
      "updateBidLockTime(uint256)": {
        "details": "Only admin",
        "params": {
          "_bidLockTime": "New bid lock time"
        }
      },
      "updateCancelFee(uint256)": {
        "details": "Only admin",
        "params": {
          "_cancelFee": "New cancel fee"
        }
      },
      "updateMinBidIncrement(uint256)": {
        "details": "Only admin",
        "params": {
          "_minBidIncrement": "New bid step in WEI"
        }
      },
      "updatePlatformFee(uint256)": {
        "details": "Only admin",
        "params": {
          "_platformFee": "New platform fee"
        }
      },
      "updatePlatformFeeRecipient(address)": {
        "details": "Only admin",
        "params": {
          "_platformFeeRecipient": "payable address the address to sends the funds to"
        }
      },
      "updateResellFee(uint256)": {
        "details": "Only admin",
        "params": {
          "_resellFee": "New resell fee"
        }
      },
      "withdrawBid(string)": {
        "details": "Only callable by the existing top bidder",
        "params": {
          "_igUrl": "Instagram URL of the fake NFT"
        }
      }
    },
    "version": 1
  },
  "userdoc": {
    "events": {
      "NFTAuctionContractDeployed()": {
        "notice": "Event emitted only on construction. To be used by indexers"
      }
    },
    "kind": "user",
    "methods": {
      "accessControls()": {
        "notice": "responsible for enforcing admin access"
      },
      "auctionDetails(string)": {
        "notice": "instagram URL -> Auction finished info "
      },
      "bidLockTime()": {
        "notice": "globally bid lock time, bidders can't withdraw bid before bidLockTime."
      },
      "cancelFee()": {
        "notice": "global cancel fee, assumed to always be to 1 decimal place i.e. 50 = 5.0%"
      },
      "creatorFee()": {
        "notice": "global creator fee, assumed to always be to 1 decimal place i.e. 100 = 10.0%"
      },
      "getHighestBidder(string)": {
        "notice": "Method for getting all info about the highest bidder"
      },
      "highestBids(string)": {
        "notice": "instagram URL -> highest bidder info (if a bid has been received)"
      },
      "isPaused()": {
        "notice": "for switching off auction creations, bids and withdrawals"
      },
      "marketTradingNft()": {
        "notice": "NFT - the only NFT that can be auctioned in this contract"
      },
      "minBidIncrement()": {
        "notice": "globally and across all auctions, the amount by which a bid has to increase"
      },
      "placeBid(string)": {
        "notice": "Places a new bid, out bidding the existing bidder if found and criteria is reached"
      },
      "platformFee()": {
        "notice": "global platform fee, assumed to always be to 1 decimal place i.e. 50 = 5.0%"
      },
      "platformFeeRecipient()": {
        "notice": "where to send platform fee funds to"
      },
      "resellFee()": {
        "notice": "global resell platform fee, assumed to always be to 1 decimal place i.e. 25 = 2.5%"
      },
      "resultAuction(string,address)": {
        "notice": "Results a finished auction"
      },
      "toggleIsPaused()": {
        "notice": "Toggling the pause flag"
      },
      "updateAccessControls(address)": {
        "notice": "Method for updating the access controls contract used by the NFT"
      },
      "updateBidLockTime(uint256)": {
        "notice": "Update the lock time of the higgest bid, before locktime passed the highest bidder can't cancel the auction"
      },
      "updateCancelFee(uint256)": {
        "notice": "Method for updating cancel fee "
      },
      "updateMinBidIncrement(uint256)": {
        "notice": "Update the amount by which bids have to increase, across all auctions"
      },
      "updatePlatformFee(uint256)": {
        "notice": "Method for updating platform fee "
      },
      "updatePlatformFeeRecipient(address)": {
        "notice": "Method for updating platform fee address"
      },
      "updateResellFee(uint256)": {
        "notice": "Method for updating resell fee "
      },
      "withdrawBid(string)": {
        "notice": "Given a sender who has the highest bid on a NFT, allows them to withdraw their bid"
      }
    },
    "notice": "Primary sale auction contract for MarketTrading NFTs",
    "version": 1
  }
}